:100000001BC022C021C020C01FC01EC01DC01CC0FC
:100010001BC01AC019C018C017C016C016C014C023
:1000200013C012C011C010C03F065B4F666D7D0744
:100030007F6F777C585E797111241FBECFEFD1E0BE
:10004000DEBFCDBF07D056C0DBCF8F938FEF86BD0D
:100050008F9118950FB6F894A895809160008861EB
:1000600080936000109260000FBE8DE88093640062
:100070008CE08EB91DB88CE385B983E084B990EC2F
:1000800098B917B81BB89FEF9AB90000000015BACD
:1000900096BD91E090936E0085BD83B7897F83BF45
:1000A000789480E020E031E095B19C7F95B92111F2
:1000B00016C083B196B1807C9F73892BE82FE2959F
:1000C000EF70F0E0E85DFF4FE4916099E068EBB914
:1000D000289A232793B7916093BF8895E5CFE82F9F
:1000E000EF70F0E0E85DFF4FE4916199E068EBB9F3
:0800F000299AEFCFF894FFCF2D
:00000001FF
